:020000040800F2
:1000000000000120192700086B2700087727000847
:100010007D270008832700088927000800000000CA
:100020000000000000000000000000008F27000812
:100030009B27000800000000A72700085D130008A8
:100040006927000869270008692700086927000850
:100050006927000869270008692700086927000840
:100060006927000869270008692700086927000830
:100070006927000869270008692700086927000820
:100080006927000869270008692700086927000810
:100090006927000869270008692700086927000800
:1000A00069270008692700086927000869270008F0
:1000B00069270008692700086927000869270008E0
:1000C00069270008692700086927000869270008D0
:1000D00069270008BD1700086927000855170008A0
:1000E00069270008692700086927000869270008B0
:1000F00069270008692700086927000869270008A0
:10010000692700086927000869270008692700088F
:10011000692700086927000869270008692700087F
:10012000692700086927000869270008692700086F
:1001300000000000000000000000000000000000BF
:1001400000000000000000000000000000000000AF
:10015000000000000000000000000000000000009F
:10016000000000000000000000000000000000008F
:10017000000000000000000000000000000000007F
:10018000000000000000000000000000000000006F
:10019000000000000000000000000000000000005F
:1001A000000000000000000000000000000000004F
:1001B000000000000000000000000000000000003F
:1001C000000000000000000000000000000000002F
:1001D000000000000000000000000000000000001F
:0401E0005FF8E0F1F3
:1001E80010B5054C237833B9044B13B10448AFF369
:1001F80000800123237010BD58000020000000007B
:100208006434000808B5034B1BB103490348AFF336
:10021800008008BD000000005C0000206434000875
:1002280010F8012B11F8013B012A28BF9A42F7D098
:10023800D01A7047034613F8012B002AFBD1181A6D
:100248000138704781F0004102E000BF83F00043AD
:1002580030B54FEA41044FEA430594EA050F08BF59
:1002680090EA020F1FBF54EA000C55EA020C7FEA1D
:10027800645C7FEA655C00F0E2804FEA5454D4EB9A
:100288005555B8BF6D420CDD2C4480EA020281EA64
:10029800030382EA000083EA010180EA020281EA9C
:1002A8000303362D88BF30BD11F0004F4FEA0131EE
:1002B8004FF4801C4CEA113102D0404261EB4101FD
:1002C80013F0004F4FEA03334CEA133302D0524283
:1002D80063EB430394EA050F00F0A780A4F101043F
:1002E800D5F1200E0DDB02FA0EFC22FA05F2801879
:1002F80041F1000103FA0EF2801843FA05F359415F
:100308000EE0A5F120050EF1200E012A03FA0EFCDD
:1003180028BF4CF0020C43FA05F3C01851EBE37107
:1003280001F0004507D54FF0000EDCF1000C7EEB24
:1003380000006EEB0101B1F5801F1BD3B1F5001F62
:100348000CD349085FEA30004FEA3C0C04F1010481
:100358004FEA445212F5800F80F09A80BCF1004FAA
:1003680008BF5FEA500C50F1000041EB045141EA2C
:10037800050130BD5FEA4C0C404141EB010111F42D
:10038800801FA4F10104E9D191F0000F04BF0146D8
:100398000020B1FA81F308BF2033A3F10B03B3F1B6
:1003A80020020CDA0C3208DD02F1140CC2F10C0246
:1003B80001FA0CF021FA02F10CE002F11402D8BFA4
:1003C800C2F1200C01FA02F120FA0CFCDCBF41EA70
:1003D8000C019040E41AA2BF01EB0451294330BD3F
:1003E8006FEA04041F3C1CDA0C340EDC04F114041C
:1003F800C4F1200220FA04F001FA02F340EA0300F3
:1004080021FA04F345EA030130BDC4F10C04C4F138
:10041800200220FA02F001FA04F340EA0300294618
:1004280030BD21FA04F0294630BD94F0000F83F462
:10043800801306BF81F480110134013D4EE77FEA45
:10044800645C18BF7FEA655C29D094EA050F08BF91
:1004580090EA020F05D054EA000C04BF1946104672
:1004680030BD91EA030F1EBF0021002030BD5FEAB6
:10047800545C05D14000494128BF41F0004130BDDE
:1004880014F580043CBF01F5801130BD01F0004532
:1004980045F0FE4141F470014FF0000030BD7FEAA5
:1004A800645C1ABF194610467FEA655C1CBF0B46A0
:1004B800024650EA013406BF52EA033591EA030FB7
:1004C80041F4002130BD00BF90F0000F04BF0021AF
:1004D800704730B54FF4806404F132044FF00005E2
:1004E8004FF0000150E700BF90F0000F04BF00215B
:1004F800704730B54FF4806404F1320410F00045C1
:1005080048BF40424FF000013EE700BF42004FEABB
:10051800E2014FEA31014FEA02701FBF12F07F4338
:1005280093F07F4F81F06051704792F0000F14BF35
:1005380093F07F4F704730B54FF4607401F0004579
:1005480021F0004120E700BF50EA010208BF7047D0
:1005580030B54FF000050AE050EA010208BF7047C5
:1005680030B511F0004502D5404261EB41014FF42E
:10057800806404F132045FEA915C3FF4DCAE4FF032
:1005880003025FEADC0C18BF03325FEADC0C18BF19
:10059800033202EBDC02C2F1200300FA03FC20FA6A
:1005A80002F001FA03FE40EA0E0021FA02F11444B7
:1005B800C1E600BF70B54FF0FF0C4CF4E06C1CEACC
:1005C80011541DBF1CEA135594EA0C0F95EA0C0F41
:1005D80000F0DEF82C4481EA030621EA4C5123EAB4
:1005E8004C5350EA013518BF52EA033541F48011E3
:1005F80043F4801338D0A0FB02CE4FF00005E1FB96
:1006080002E506F00042E0FB03E54FF00006E1FBDF
:1006180003569CF0000F18BF4EF0010EA4F1FF0422
:10062800B6F5007F64F5407404D25FEA4E0E6D4162
:1006380046EB060642EAC62141EA55514FEAC52073
:1006480040EA5E504FEACE2EB4F1FD0C88BFBCF5EF
:10065800E06F1ED8BEF1004F08BF5FEA500E50F1A0
:10066800000041EB045170BD06F0004646EA010166
:1006780040EA020081EA0301B4EB5C04C2BFD4EB98
:100688000C0541EA045170BD41F480114FF0000E91
:10069800013C00F3AB8014F1360FDEBF002001F0FF
:1006A800004170BDC4F10004203C35DA0C341BDC79
:1006B80004F11404C4F1200500FA05F320FA04F04B
:1006C80001FA05F240EA020001F0004221F000417F
:1006D80010EBD37021FA04F642EB06015EEA430EF2
:1006E80008BF20EAD37070BDC4F10C04C4F1200522
:1006F80000FA04F320FA05F001FA04F240EA0200D5
:1007080001F0004110EBD37041F100015EEA430EA5
:1007180008BF20EAD37070BDC4F1200500FA05F2C5
:100728004EEA020E20FA04F301FA05F243EA020344
:1007380021FA04F001F0004121FA04F220EA020053
:1007480000EBD3705EEA430E08BF20EAD37070BD99
:1007580094F0000F0FD101F00046400041EB010179
:1007680011F4801F08BF013CF7D041EA060195F05B
:10077800000F18BF704703F00046520043EB030315
:1007880013F4801F08BF013DF7D043EA0603704702
:1007980094EA0C0F0CEA135518BF95EA0C0F0CD00D
:1007A80050EA410618BF52EA4306D1D181EA030153
:1007B80001F000414FF0000070BD50EA410606BF4D
:1007C8001046194652EA430619D094EA0C0F02D192
:1007D80050EA013613D195EA0C0F05D152EA0336D7
:1007E8001CBF104619460AD181EA030101F00041F5
:1007F80041F0FE4141F470014FF0000070BD41F03E
:10080800FE4141F4780170BD70B54FF0FF0C4CF417
:10081800E06C1CEA11541DBF1CEA135594EA0C0F36
:1008280095EA0C0F00F0A7F8A4EB050481EA030E83
:1008380052EA03354FEA013100F088804FEA03336A
:100848004FF0805545EA131343EA12634FEA022238
:1008580045EA111545EA10654FEA00260EF00041F9
:100868009D4208BF964244F1FD0404F5407402D24B
:100878005B084FEA3202B61A65EB03055B084FEADC
:1008880032024FF480104FF4002CB6EB020E75EBD9
:10089800030E22BFB61A754640EA0C005B084FEA01
:1008A8003202B6EB020E75EB030E22BFB61A75467E
:1008B80040EA5C005B084FEA3202B6EB020E75EBC9
:1008C800030E22BFB61A754640EA9C005B084FEA41
:1008D8003202B6EB020E75EB030E22BFB61A75464E
:1008E80040EADC0055EA060E18D04FEA051545EA3D
:1008F80016754FEA06164FEAC30343EA52734FEAE6
:10090800C2025FEA1C1CC0D111F4801F0BD141EA5E
:1009180000014FF000004FF0004CB6E711F4801FC3
:1009280004BF01430020B4F1FD0C88BFBCF5E06FA3
:100938003FF6AFAEB5EB030C04BFB6EB020C5FEAB3
:10094800500C50F1000041EB045170BD0EF0004E08
:100958004EEA113114EB5C04C2BFD4EB0C0541EA3A
:10096800045170BD41F480114FF0000E013C90E637
:1009780045EA060E8DE60CEA135594EA0C0F08BFFB
:1009880095EA0C0F3FF43BAF94EA0C0F0AD150EAFA
:1009980001347FF434AF95EA0C0F7FF425AF10468D
:1009A80019462CE795EA0C0F06D152EA03353FF4B5
:1009B800FDAE1046194622E750EA410618BF52EA32
:1009C80043067FF4C5AE50EA41047FF40DAF52EA06
:1009D80043057FF4EBAE12E74A0011D212F500127C
:1009E80011D20DD56FF47873B3EB62520ED44FEA7F
:1009F800C12343F0004343EA505323FA02F07047FF
:100A08004FF00000704750EA013002D14FF0FF303C
:100A180070474FF00000704780B489B000AF78602D
:100A280039600023FB6100233B610023BB61002385
:100A3800FB6000237B610023BB603B68DB7803F02D
:100A48000F03FB613B68DB7803F01003002B05D034
:100A58003B689B781A46FB691343FB613B681B881C
:100A6800DBB2002B44D07B681B687B610023BB6131
:100A780038E00122BB6902FA03F3FB603B681B887C
:100A88001A46FB6813403B613A69FB689A4226D1D3
:100A9800BB699B00FB600F22FB6802FA03F3BB6093
:100AA800BB68DB437A6913407B61FA69FB6802FA29
:100AB80003F37A6913437B613B68DB78282B05D104
:100AC8000122BB699A407B685A6108E03B68DB7881
:100AD800482B04D10122BB699A407B681A61BB6923
:100AE8000133BB61BB69072BC3D97B687A691A607C
:100AF8003B681B88FF2B46D97B685B687B610023BA
:100B0800BB613AE0BB690833012202FA03F3FB60D8
:100B18003B681B881A46FB6813403B613A69FB68CF
:100B28009A4227D1BB699B00FB600F22FB6802FA3F
:100B380003F3BB60BB68DB437A6913407B61FA69E6
:100B4800FB6802FA03F37A6913437B613B68DB783D
:100B5800282B05D1BB69083301229A407B685A616A
:100B68003B68DB78482B05D1BB69083301229A40E2
:100B78007B681A61BB690133BB61BB69072BC1D9AB
:100B88007B687A695A6000BF2437BD4680BC7047CD
:100B980080B485B000AF78600B467B800023FB7380
:100BA8007B689A687B881340002B02D00123FB7373
:100BB80001E00023FB73FB7B18461437BD4680BC5D
:100BC800704780B483B000AF78600B467B801346D3
:100BD8007B707B78002B03D07A887B681A6102E0EF
:100BE8007A887B685A6100BF0C37BD4680BC704765
:100BF80080B487B000AF786000237B6100233B613D
:100C08000023FB600023BB604C4B5B6803F00C03C4
:100C18007B617B69042B07D0082B09D0002B33D1CB
:100C28007B68474A1A6033E07B68454A1A602FE0C0
:100C3800424B5B6803F470133B61404B5B6803F401
:100C48008033FB603B699B0C02333B61FB68002BE4
:100C580006D13B693B4A02FB03F27B681A6017E046
:100C6800364B5B6803F40033002B06D03B69354AEA
:100C780002FB03F27B681A600AE03B69304A02FB18
:100C880003F27B681A6003E07B682D4A1A6000BF94
:100C98002A4B5B6803F0F0037B617B691B097B616E
:100CA800294A7B6913441B78DBB2BB607B681A68EE
:100CB800BB68DA407B685A60204B5B6803F4E063EA
:100CC8007B617B691B0A7B611F4A7B6913441B7824
:100CD800DBB2BB607B685A68BB68DA407B689A60A5
:100CE800164B5B6803F460537B617B69DB0A7B61AD
:100CF800154A7B6913441B78DBB2BB607B685A6872
:100D0800BB68DA407B68DA600C4B5B6803F44043ED
:100D18007B617B699B0B7B610C4A7B6913441B7865
:100D2800DBB2BB607B68DA68BB68B2FBF3F27B6856
:100D38001A6100BF1C37BD4680BC704700100240D6
:100D480000127A0000093D00000000201000002079
:100D580080B483B000AF78600B46FB70FB78002B43
:100D680006D00949084B9A697B6813438B6106E0F2
:100D78000549054B9A697B68DB4313408B6100BFCB
:100D88000C37BD4680BC70470010024080B483B069
:100D980000AF78600B46FB70FB78002B06D0094942
:100DA800084BDA697B681343CB6106E00549054BBC
:100DB800DA697B68DB431340CB6100BF0C37BD4663
:100DC80080BC70470010024080B58CB000AF7860DE
:100DD80039600023FB620023BB6200237B6200238F
:100DE8003B620023FB617B68FB617B681B8A9BB2CB
:100DF800FB62FA6A4CF6FF731340FB623B68DB88C0
:100E08001A46FB6A1343FB62FB6A9AB27B681A8232
:100E18007B689B899BB2FB62FA6A4EF6F313134018
:100E2800FB623B689A883B681B8913439AB23B680C
:100E38005B8913439BB21A46FB6A1343FB62FB6A46
:100E48009AB27B689A817B689B8A9BB2FB62FA6A3A
:100E58004FF6FF431340FB623B689B891A46FB6AC7
:100E68001343FB62FB6A9AB27B689A8207F1080314
:100E78001846FFF7BDFEFB692E4A934202D17B69F3
:100E8800BB6201E03B69BB627B689B899BB21BB27A
:100E9800002B0CDABA6A13469B0013449A001A44D2
:100EA8003B681B685B00B2FBF3F37B620BE0BA6A3A
:100EB80013469B0013449A001A443B681B689B0026
:100EC800B2FBF3F37B627B6A1B4AA2FB03235B0939
:100ED8001B01FB62FB6A1B09642202FB03F37A6AAB
:100EE800D31A3B627B689B899BB21BB2002B0CDA3E
:100EF8003B6ADB003233104AA2FB03235B0903F091
:100F08000703FA6A1343FB620BE03B6A1B013233A7
:100F1800094AA2FB03235B0903F00F03FA6A134390
:100F2800FB62FB6A9AB27B681A8100BF3037BD4604
:100F380080BD00BF003801401F85EB5180B483B0ED
:100F480000AF78600B46FB70FB78002B08D07B68FD
:100F58009B899BB243F400539AB27B689A8107E05D
:100F68007B689B899BB223F400539AB27B689A8171
:100F780000BF0C37BD4680BC704780B487B000AF57
:100F880078600B467B8013467B7000233B6100230F
:100F9800FB600023BB6000237B617B687B617B88EF
:100FA800DBB25B09DBB23B617B8803F01F03FB60AC
:100FB8000122FB6802FA03F3BB603B69012B03D1F2
:100FC8007B690C337B6109E03B69022B03D17B69A8
:100FD80010337B6102E07B6914337B617B78002BE3
:100FE80006D07B697A691168BA680A431A6006E014
:100FF8007B697A691168BA68D2430A401A6000BFEF
:101008001C37BD4680BC704780B483B000AF7860A1
:101018000B467B807B88C3F308039AB27B689A806F
:1010280000BF0C37BD4680BC704780B483B000AFAA
:1010380078607B689B889BB2C3F308039BB2184611
:101048000C37BD4680BC704780B485B000AF78606F
:101058000B467B800023FB737B681B889AB27B88D6
:1010680013409BB2002B02D00123FB7301E0002345
:10107800FB73FB7B18461437BD4680BC704780B4B1
:1010880083B000AF78607B681B6803F00203002B15
:1010980001D0012300E0002318460C37BD4680BC70
:1010A800704780B483B000AF78607B689B6843F476
:1010B80080027B689A6000BF0C37BD4680BC7047D1
:1010C80080B483B000AF78600B46FB70FA787B6819
:1010D8005A6300BF0C37BD4680BC704780B483B0EC
:1010E80000AF78607B68DB6C9BB2C3F30B039BB2E9
:1010F80018460C37BD4680BC704780B483B000AF3B
:1011080078607B689B6843F001027B689A607B6823
:101118009B6843F480127B689A607B689B6843F401
:1011280060227B689A607B689B6843F008027B6852
:101138009A607B685B6843F020027B685A6000BF56
:101148007B689B6803F00803002BF9D17B689B68D8
:1011580043F004027B689A6000BF7B689B6803F0D9
:101168000403002BF9D100BF0C37BD4680BC704783
:1011780080B483B000AF0346FB71094B1B785A1C3F
:10118800D1B2074A11701946064AFB795354044BE9
:101198001B78013BDBB218460C37BD4680BC704754
:1011A800840000207400002080B400AF034B0022AC
:1011B8001A7000BFBD4680BC704700BF8400002085
:1011C80080B483B000AF0346FB71FB79034A32F861
:1011D800133018460C37BD4680BC70478800002085
:1011E80080B582B000AF524B1B78002B00F09C807A
:1011F800504B1B78002B2CD14F4B00221A700CE05F
:101208004D4B1B7819464D4B002243F821204A4B81
:101218001B780133DAB2484B1A70474B1A78444BA3
:101228001B789A42ECD3444B00221A70444B00229C
:101238001A70414B1B781A46424B9B5C1946424830
:10124800FFF73EFF4048FFF72CFF3A4B01221A7088
:101258006BE0384B1B78012B67D13B48FFF70FFF3A
:101268000346002B61D03848FFF738FF034618467D
:10127800314B1B781946304B1B781A462F4B53F8C5
:101288002230024613442D4A42F821302A4B1B785B
:101298000133DAB2284B1A70274B1A78244B1B7883
:1012A8009A4234D3244B00221A70254B1B78013301
:1012B800DAB2234B1A70224B1B78312B27D9002323
:1012C800FB711CE0FB79FA791C4951F822201F496F
:1012D800A1FB02121209194941F82320FB79FA7976
:1012E800164951F8222091B2194A22F81310FB79B5
:1012F800124A002142F82310FB790133FB710C4B91
:101308001B78FA799A42DDD30D4B00221A700A4BEA
:101318001B781A460B4B9B5C19460B48FFF7D0FE0F
:101328000948FFF7BEFE00E000BF0837BD4680BD94
:1013380084000020A8000020A9000020AC000020A4
:10134800EC00002074000020002401401F85EB51B0
:101358008800002090B400AF054B18CB013344F14E
:101368000004034A82E8180000BFBD4690BC7047DD
:10137800F000002090B400AF034B18CB184621466C
:10138800BD4690BC704700BFF000002090B585B006
:1013980000AFC7E902017A6000F02AF80A46014660
:1013A800D7E90234C91A62EB04027B684FF00004E3
:1013B800A24208BF994201D3012300E00023184646
:1013C8001437BD4690BD80B584B000AFC7E90201AF
:1013D8007A607B684FF47A7202FB03F31A46D7E906
:1013E8000201FFF7D3FF034618461037BD4680BDFC
:1013F80090B400AF034B18CB18462146BD4690BCAD
:10140800704700BFF000002080B586B002AFF860DA
:101418007B600B467B8113463B81294B1B78222B33
:1014280001D9FF2347E0264B1B781946254A7B68DC
:1014380042F8213039897A89214B1B7800937B68DF
:10144800214801F05DFF1E4B1B78204A1B01134405
:1014580000221A7000225A7000229A700022DA7054
:10146800174B1B78194A1B01134400221A710022DA
:101478005A7100229A710022DA71114B1B78134AB3
:101488001B0113440833FA681A600D4B1B780F4A86
:101498001B01134408337A899A80094B1B780B4A3D
:1014A8001B01134408333A89DA80054B1B785A1C10
:1014B800D1B2034A117018461037BD4680BD00BF2F
:1014C800F8000020A40100207C340008300200202D
:1014D80080B582B000AF03463960FB71FB791846CE
:1014E80000F044F80346002B01D0002337E0F979D7
:1014F800FB791D4A1B0113445B680133FA791A48CA
:10150800120102440832D28892B293FBF2F002FB35
:1015180000F29A1A14480B0103445A60FB79124AE4
:101528001B01134408331B68FA790F4912010A4456
:101538005268F9790C48090101440831898889B24F
:1015480001FB02F29818FB79074A1B011344083380
:101558009B889BB21A46396801F06CFF0123184634
:101568000837BD4680BD00BF3002002080B483B07C
:1015780000AF0346FB71FB790F4A1B01134419683E
:10158800FB790D4A1B0113445B680133FA790A4859
:10159800120102440832D28892B293FBF2F002FBA5
:1015A80000F29B1A994201D1012300E0002318465A
:1015B8000C37BD4680BC70473002002080B483B031
:1015C80000AF0346FB71FB79094A1B0113441A68F3
:1015D800FB7907491B010B445B689A4201D101233F
:1015E80000E0002318460C37BD4680BC704700BF9A
:1015F8003002002080B582B000AF0346FB71FB7952
:101608001846FFF7DBFF0346002B01D000232BE031
:10161800F979FB79164A1B0113441B680133FA79DF
:101628001348120102440832D28892B293FBF2F0B6
:1016380002FB00F29A1A0E480B0103441A60FB7968
:101648000B4A1B01134408331B68FA790849120135
:101658000A441268F9790648090101440831898861
:1016680089B201FB02F2134418460837BD4680BD13
:101678003002002080B584B000AF0346FB71FB79CF
:101688001846FFF79BFF0346002B01D0002325E0F7
:10169800FB79144A1B0113441B68FB81FB89013346
:1016A800FA79104912010A440832D28892B293FB9F
:1016B800F2F102FB01F29B1AFB81FB79094A1B013B
:1016C800134408331B68FA89F9790648090101446B
:1016D8000831898889B201FB02F213441846103791
:1016E800BD4680BD3002002080B483B000AF034601
:1016F800FB71F979FA790C48130103440020187139
:1017080000205871002098710020D87106481301F4
:1017180003445A6804480B0103441A6000BF0C379D
:10172800BD4680BC704700BF3002002080B500AFC6
:1017380001F0A4FA00F0D2FFFFF752FD00F09AFB87
:1017480000F08AFC00F004FAF6E7000090B583B0D8
:1017580000AF1448FFF769FC0346FB80124B18CB17
:10176800642218462146FFF711FE0346002B02D0DB
:101778000E4B00221A700D4B1B785A1CD1B20B4A23
:1017880011701A46FB88D9B2094B9954FFF7F2FD3C
:1017980003460C46044A82E8180000BF0C37BD46D1
:1017A80090BD00BF004800404001002038010020E3
:1017B8002401002090B583B000AF214B9B889BB2D9
:1017C800FB71204B18CB642218462146FFF7DEFD3B
:1017D8000346002B02D01C4B00221A70FB790A2BFF
:1017E80002D0FB790D2B06D1184B01221A70164B2B
:1017F80000221A700FE0144B1B785A1CD1B2124AFF
:1018080011701946124AFB7953540F4B1B781A462C
:101818000F4B002199540C4B1B78622B02D90A4BB1
:1018280000221A70FFF7A6FD03460C46054A82E817
:101838001800034B1B8800BF0C37BD4690BD00BF86
:1018480000380140480100205301002054010020C5
:101858007404002080B400AF064B1B78002B04D022
:10186800044B00221A70012300E000231846BD46ED
:1018780080BC70475501002080B400AF064B1B7830
:10188800002B04D0044B00221A70012300E000232F
:101898001846BD4680BC70475601002080B584B00C
:1018A80000AF78600B467B800023FB6013E0FB6889
:1018B8005B007A6813441B8819460B48FFF7A4FBA2
:1018C80000BF80210848FFF7BFFB0346002BF8D074
:1018D800FB680133FB607A88FB689A42E7DC00BF4B
:1018E8001037BD4680BD00BF0048004080B582B0BB
:1018F80000AF03460A46FB711346BB71BB79012B47
:1019080040F0C380884AFB791370FB79012B14D10E
:10191800012280218548FFF754F90022402184489C
:10192800FFF74FF9002220218148FFF74AF90022EA
:1019380004218048FFF745F9F1E0FB79022B14D127
:10194800012240217948FFF73CF9012240217848DB
:10195800FFF737F9002220217548FFF732F90022F6
:1019680004217448FFF72DF9D9E0FB79032B14D132
:10197800012220216D48FFF724F9002240216C48FC
:10198800FFF71FF9012220216948FFF71AF9002201
:1019980004216848FFF715F9C1E0FB79042B14D13D
:1019A800012210216148FFF70CF90122402160480B
:1019B800FFF707F9012220215D48FFF702F900220D
:1019C80004215C48FFF7FDF8A9E0FB79052B14D149
:1019D800012208215548FFF7F4F800224021544815
:1019E800FFF7EFF8002220215148FFF7EAF801221B
:1019F80004215048FFF7E5F891E0FB79062B14D154
:101A0800012204214948FFF7DCF801224021484817
:101A1800FFF7D7F8002220214548FFF7D2F8012226
:101A280004214448FFF7CDF879E0FB79072B14D15E
:101A3800012202213D48FFF7C4F8002240213C481A
:101A4800FFF7BFF8012220213948FFF7BAF8012231
:101A580004213848FFF7B5F861E0FB79082B5ED11F
:101A6800012201213148FFF7ACF80122402130481A
:101A7800FFF7A7F8012220212D48FFF7A2F801223D
:101A880004212C48FFF79DF849E0274B00221A70E3
:101A9800FB79012B05D1002280212448FFF791F81A
:101AA8003DE0FB79022B05D1002240211F48FFF7BA
:101AB80088F834E0FB79032B05D1002220211B484C
:101AC800FFF77FF82BE0FB79042B05D100221021CA
:101AD8001648FFF776F822E0FB79052B05D100229E
:101AE80008211248FFF76DF819E0FB79062B05D19C
:101AF800002204210D48FFF764F810E0FB79072B5A
:101B080005D1002202210948FFF75BF807E0FB79BD
:101B1800082B04D1002201210448FFF752F800BF26
:101B28000837BD4680BD00BF3901002000080140CC
:101B3800000C01400014014080B400AF024B1B7838
:101B48001846BD4680BC70473901002000000000DF
:101B580090B583B000AFA04BAA221A809E4B5522A5
:101B68009A809E4B1A789E4B1B789A420AD09B4BC0
:101B78001A789B4B1A70FFF73BFC03460C46994AB0
:101B880082E81800954B1B78002B03D1934B012258
:101B98001A7016E1914B1B78012B22D1914B18CB6F
:101BA800322218462146FFF7F1FB0346002B00F0CE
:101BB800088100F031F90346032B00F0028100F0A0
:101BC8002BF903469AB2884B1A80874B1A88824BA6
:101BD8005A8003218048FFF761FE804B02221A7069
:101BE800EFE07E4B1B78022B40F0EB807F4B1B789D
:101BF800112B40F2E6807E4B18CB05221846214671
:101C0800FFF7C4FB0346002B00F0DB80774B002274
:101C18001A70724B00221A70764B1B78AA2B40F070
:101C2800BB80744B5B78AA2B40F0B680714B1B7C51
:101C3800552B40F0B1806F4B5B7C552B40F0AC804E
:101C480000237B6007E06C4A7B68002122F81310B0
:101C58007B6801337B607B68112BF4DD664B5A8906
:101C6800644B5B7B9BB213439AB2634B5A81624BC2
:101C78005B891AB25F4B1B7B1B021BB213431BB25F
:101C88009AB25D4B5A815C4B5B89022B79D15A4BD6
:101C98009A88584BDB799BB213439AB2564B9A8079
:101CA800554B9B881AB2534B9B791B021BB21343AB
:101CB8001BB29AB2504B9A804F4B9B8819464F489B
:101CC80001F01EFB4B4BDB7A012B1ED14A4B012244
:101CD8001A81494B1A88474BDB789BB213439AB257
:101CE800454B1A80444B1B881AB2424B9B781B0207
:101CF8001BB213431BB29AB23F4B1A803E4B1B8850
:101D080019463F4801F0FCFA02E03E4801F042FB68
:101D1800384B5B7A012B2DD1374B0122DA80364BB9
:101D28005A88344B5B799BB213439AB2324B5A8030
:101D3800314B5B881AB22F4B1B791B021BB2134322
:101D48001BB29AB22C4B5A802B4B5B881846FEF775
:101D5800CBFB1FA3D3E90023FEF72CFC03460C465C
:101D680018462146FEF738FE03469BB21946264818
:101D780001F0C6FA1F4BDB7B012B02D1234801F08F
:101D880009FB1D4B5A89184B1B889A4204D1204BDA
:101D98001B781846FFF72EFC124B18CB0522184665
:101DA8002146FFF710FB0346002B0AD00B4B0022FD
:101DB8001A70184801F0EEFA154B1B781846FFF711
:101DC80019FC00BF0C37BD4690BD00BFAFF30080C3
:101DD80085EB51B81E85F33F580100206C010020A7
:101DE8006D01002070010020500100203801002002
:101DF8004001002024010020FC000020B03400082D
:101E0800C8340008DC340008F03400080C35000839
:101E1800570100201835000880B582B000AF0B4B81
:101E28001B781846FFF7CAFB0346002B08D1074B5F
:101E38001B781846FFF71EFC78607B681B7800E06B
:101E4800032318460837BD4680BD00BF5701002050
:101E580080B582B000AF0346FB71054B1B78FA1DB5
:101E680011461846FFF734FB00BF0837BD4680BD52
:101E78005701002080B586B000AF3B4614220021F0
:101E8800184601F0E2FA634B1B78002B00F0BF8084
:101E9800604B00221A7001237B6145E03B467A695A
:101EA8005D49184601F016FA3B4619465B48FEF7AD
:101EB800B7F90346002B34D1594B1B781A467B6976
:101EC8009A4207D1FFF738FE03461946554801F0F4
:101ED80017FA9CE0FFF730FE0346002B0DD0FFF702
:101EE8002BFE03461946504801F00AFAFFF724FE74
:101EF800034600211846FFF7F9FC7B69DBB2012194
:101F08001846FFF7F3FCFFF717FE03461946474844
:101F180001F0F6F9FFF710FE03461A46404B1A7017
:101F280075E07B6901337B617B69082BB6DD012392
:101F38007B611BE03B467A693D49184601F0CAF9C6
:101F48003B4619463548FEF76BF90346002B0AD184
:101F58007B69DBB200211846FFF7C8FC7969354870
:101F680001F0CEF953E07B6901337B617B69082B73
:101F7800E0DD01237B6123E03B467A692E49184660
:101F880001F0A8F93B4619462448FEF749F90346EB
:101F9800002B12D1FFF7D0FD03461A467B699A42FF
:101FA80006D1264B00221A70254B01221A702EE00A
:101FB8007969244801F0A4F929E07B6901337B6140
:101FC8007B69082BD8DD01237B611AE03B467A69DF
:101FD8001D49184601F07EF93B4619460F48FEF7A1
:101FE8001FF90346002B09D1184801F089F9134B52
:101FF80000221A70164B00221A7008E07B69013320
:102008007B617B69082BE1DD0C4B00221A701837C5
:10201800BD4680BD540100203435000874040020FA
:1020280020010020403500085835000878350008A0
:102038008835000898350008A835000853010020A5
:1020480055010020B0350008C4350008CC3500081B
:10205800560100200000000090B583B000AFB44BDB
:102068001A78B44B1B789A420AD0B14B1A78B14B04
:102078001A70FFF7BDF903460C46AF4A82E818000C
:10208800FFF7FAFB0346002B0AD0A94B00221A706F
:10209800AA4B1B781846FFF727FBA94B00221A709A
:1020A800A34B1B78002B01D0FFF7D4FBA04B1B7868
:1020B800002B11D1FFF7CEFB0346002B00F0038362
:1020C800A04801F067F99A4B01221A709B4B1B78C4
:1020D8001846FFF709FBF6E2954B1B78012B40F0F9
:1020E800A880994B1B68DBB21846FFF769F80346CE
:1020F8001A46964B1B681344944A1360944B1B680A
:10210800DBB21846FFF75CF803461A468F4B5B684C
:1021180013448E4A53608F4B1B68DBB21846FFF797
:102128004FF803461A46894B9B681344874A9360C5
:10213800894B1B680133884A13607F4B18CB0322F5
:1021480018462146FFF73FF90346002B00F0BB82F3
:102158007E4B1B68804A1268B3FBF2F37B4A13601C
:102168007A4B5B687C4A1268B3FBF2F3774A536098
:10217800764B9B68784A1268B3FBF2F3734A936014
:10218800754B00221A60714B9B681846FEF79CF944
:1021980065A3D3E90023FEF70DFA03460C4618465B
:1021A8002146FEF719FC03469CB2684B5B6818464B
:1021B800FEF78AF95CA3D3E90023FEF7FBF9024690
:1021C8000B4610461946FEF707FC03469BB2E31A76
:1021D800FB80FB881946614801F092F85B4B1B684D
:1021E8001846FEF771F950A3D3E90023FEF7E2F988
:1021F80003460C461846214602460B46FEF728F8C9
:1022080003460C4618462146FEF7E6FB03469BB2FA
:102218001946534801F074F84C4B00221A604B4B96
:1022280000225A60494B00229A60414B02221A70E0
:1022380049E23F4B1B78022B11D13F4B18CB0322AD
:1022480018462146FFF7BFF80346002B00F03B82F3
:102258000120FFF7FDFD364B03221A7033E2344BA1
:102268001B78032B2ED1344B18CB0122184621465C
:10227800FFF7A9F80346002B0FD0304B1B78184600
:10228800FFF79CF90346002B07D00122802135482F
:10229800FEF797FC264B04221A70274B18CB032213
:1022A80018462146FFF78FF80346002B00F00B82F3
:1022B8002D4801F06FF82D4801F06CF81C4B0022F6
:1022C8001A7000E21A4B1B78042B57D11A4B18CB03
:1022D800012218462146FFF776F80346002B00F046
:1022E800F281FFF729FC0346013B214A52F82340BB
:1022F800FFF722FC0346013B1E4A32F81330194609
:102308002046FEF745FC0346012B07D11A4801F089
:1023180041F8002280211348FEF753FC044B0522A4
:102328001A70D0E1AFF30080C3F5285C8FC2E93F93
:102338007801002079010020800100205701002049
:1023480052010020E03500086404002088010020C4
:10235800600400206C0400209C010020F035000877
:1023680000360008000C0140103600081835000837
:10237800240000201400002028360008B64B1B78E3
:10238800052B29D1B54B18CB012218462146FFF75A
:102398001AF80346002B00F09681FFF7CDFB0346A1
:1023A800013BAF4A52F82340FFF7C6FB0346013B07
:1023B800AC4A32F8133019462046FEF7E9FB0346CB
:1023C800012B02D1A84800F0E5FFA34B06221A70A2
:1023D8000020FFF73DFD76E19F4B1B78052B2ED1A2
:1023E8009E4B18CB012218462146FEF7ECFF034608
:1023F800002B0FD09D4B1B781846FFF7DFF80346DC
:10240800002B07D0012280219948FEF7DAFB924B76
:1024180006221A70914B18CB032218462146FEF764
:10242800D2FF0346002B00F04E81924800F0B2FF25
:10243800914800F0AFFF884B00221A7043E1864BA9
:102448001B78062B2BD1854B18CB01221846214629
:10245800FEF7B9FF0346002B00F03581FFF76CFB50
:102468000346013B7E4A52F82340FFF765FB0346CB
:10247800013B7C4A32F8133019462046FEF788FBA8
:102488000346002B02D17D4800F084FF0022802102
:102498007748FEF796FB704B07221A7013E16E4BD4
:1024A8001B78072B29D16D4B18CB012218462146E2
:1024B800FEF789FF0346002B00F00581FFF73CFB80
:1024C8000346013B664A52F82340FFF735FB0346B3
:1024D800013B644A32F8133019462046FEF758FB90
:1024E8000346012B02D1654800F054FF5A4B0822DD
:1024F8001A70634800F04EFFE5E0574B1B78082B35
:1025080072D1604B1B68DBB21846FEF759FE0346D2
:102518001A465D4BDB6813445B4AD3605B4B1B6810
:10252800DBB21846FEF74CFE03461A46564B1B69AB
:102538001344554A1361564B1B680133544A1360C0
:10254800464B18CB0F2218462146FEF73CFF0346A0
:10255800002B00F0B8804C4BDB684D4A1268B3FB87
:10256800F2F3494AD360484B1B69494A1268B3FBE6
:10257800F2F3454A1361464B00221A60424BDB686E
:102588001846FDF7A1FF32A3D3E90023FEF712F89E
:1025980003460C4618462146FEF71EFA03469BB230
:1025A80019463C4800F0ACFE374B1B691846FDF74E
:1025B8008BFF27A3D3E90023FDF7FCFF03460C4656
:1025C80018462146FEF708FA03469BB219463248D8
:1025D80000F096FE0220FFF73BFC1F4B1B780133EF
:1025E800DAB21D4B1A706EE01B4B1B78092B60D1B9
:1025F8001A4B18CB0A2218462146FEF7E4FE03467A
:10260800002B05D0254800F0C5FE134B00221A7098
:10261800124B18CB022218462146FEF7D4FE034679
:10262800002B50D0114B1B781846FEF7C7FF034606
:10263800002B48D01A4BDB88002B33D0184B1B8952
:10264800002B2FD0044B0A221A703CE0AFF3008015
:10265800C3F5285C8FC2E93F780100208001002083
:10266800240000201400002028360008570100200C
:10267800000C014038360008183500084C360008B0
:1026880058360008680400208801002070040020E3
:102698009C010020643600087C360008903600084B
:1026A800FC0000200A4800F075FE0A4B08221A7048
:1026B80009E0084B1B780A2B05D1074800F06AFE91
:1026C800044B00221A7000BF0C37BD4690BD00BFF6
:1026D800B036000878010020C436000880B500AF85
:1026E800084B0A2201210848FEF78EFE03461A46C7
:1026F800064B1A70054B1B781846FEF7F5FF00BF0E
:1027080080BD00BFD0360008D80400205701002043
:10271800DFF834D0002103E00C4B5B584350043100
:102728000B480C4B42189A42F6D30B4A02E000239E
:1027380042F8043B094B9A42F9D300F02FFB00F012
:1027480055FEFEF7F3FF7047000001200837000828
:10275800000000205800002058000020E404002059
:10276800FEE780B400AF00BFBD4680BC704780B4B0
:1027780000AFFEE780B400AFFEE780B400AFFEE72D
:1027880080B400AFFEE780B400AF00BFBD4680BC98
:10279800704780B400AF00BFBD4680BC704780B4AE
:1027A80000AF00BFBD4680BC704780B586B000AFA3
:1027B800F860B9607A6000237B6109E07B69BA68D8
:1027C80013441B78184600F0B5F97B6901337B6127
:1027D8007A697B689A42F1DB7B6818461837BD46F0
:1027E80080BD000080B483B000AF0346FB71084988
:1027F80097F907305B09FA7902F01F02012000FA05
:1028080002F241F8232000BF0C37BD4680BC704758
:1028180000E100E080B483B000AF03463960FB718B
:1028280097F90730002B0BDA0D49FB7903F00F03FA
:10283800043B3A68D2B21201D2B20B441A7609E0CC
:10284800084997F907303A68D2B21201D2B20B445C
:1028580083F8002300BF0C37BD4680BC704700BF1B
:1028680000ED00E000E100E080B582B000AF7860E4
:102878007B68B3F1807F01D3012311E00A4A7B68AA
:1028880023F07F43013B53600F214FF0FF30FFF7E8
:10289800C1FF054B00229A60034B07221A600023F0
:1028A80018460837BD4680BD10E000E080B582B00C
:1028B80000AF0323BB711023FB718023BB803B1D3A
:1028C80019461F48FEF7A8F84023BB803B1D194650
:1028D8001B48FEF7A1F82023BB803B1D194618486A
:1028E800FEF79AF81023BB803B1D19461448FEF7E3
:1028F80093F80823BB803B1D19461148FEF78CF856
:102908000423BB803B1D19460D48FEF785F80223BA
:10291800BB803B1D19460A48FEF77EF80123BB80A1
:102928003B1D19460648FEF777F88023BB803B1D00
:1029380019460448FEF770F800BF0837BD4680BD49
:1029480000080140000C014080B582B000AF0123AF
:10295800BB711023FB714023BB803B1D19460E48F9
:10296800FEF75AF82023BB803B1D19460B48FEF79B
:1029780053F80423BB803B1D19460848FEF74CF862
:102988004FF48053BB803B1D19460548FEF744F8B9
:1029980000BF0837BD4680BD000C0140001401404F
:1029A8000010014080B582B000AF0123BB714823FD
:1029B800FB714FF40073BB803B1D19461E48FEF7A0
:1029C8002BF84FF48073BB803B1D19461A48FEF75D
:1029D80023F88023BB803B1D19461748FEF71CF8D7
:1029E8004023BB803B1D19461348FEF715F84FF4EA
:1029F8000043BB803B1D19461048FEF70DF84FF405
:102A08008043BB803B1D19460C48FEF705F84FF480
:102A18000053BB803B1D19460848FDF7FDFF4FF4E6
:102A28008053BB803B1D19460448FDF7F5FF00BFE6
:102A38000837BD4680BD00BF00100140000C0140B2
:102A480080B586B000AF0323BB751823FB754FF420
:102A58008063BB8207F1140319463148FDF7DCFF98
:102A68004FF40073BB8207F1140319462D48FDF794
:102A7800D3FF4823FB754FF40063BB8207F11403AF
:102A880019462748FDF7C8FF4FF48063BB8207F15A
:102A9800140319462348FDF7BFFF01224FF40061D4
:102AA8001F48FEF78EF801224FF480611D48FEF79B
:102AB80088F84FF461337B6000233B820C23FB8151
:102AC8000023BB8100237B8100233B813B1D1946EA
:102AD8001548FEF779F9012240F225511248FEF710
:102AE8004CFA124B7B603B1D19461148FEF76CF9F6
:102AF800012240F225510E48FEF73FFA01210C4809
:102B0800FEF71CFA01210848FEF718FA2520FFF7FE
:102B180069FE2720FFF766FE00BF1837BD4680BD57
:102B280000100140000801400038014048E8010059
:102B38000048004080B582B000AF0346FB71FB79C6
:102B48009BB219460748FEF75FFA00BF8021054887
:102B5800FEF77AFA0346002BF8D000BF0837BD46C7
:102B680080BD00BF0038014080B500AF3B4B00225C
:102B7800DA703A4B01229A70384B02221A80374990
:102B88003748FDF749FF002202213548FEF719F8BA
:102B9800324B04221A8031493148FDF73DFF0022AB
:102BA80004212F48FEF70DF82C4B08221A802B49D8
:102BB8002B48FDF731FF002208212948FEF701F8CC
:102BC800264B10221A8025492548FDF725FF0022AB
:102BD80010212348FDF7F5FF204B20221A801F49BA
:102BE8001F48FDF719FF002220211D48FDF7E9FFC6
:102BF8001A4B01221A8019491948FDF70DFF0022C6
:102C080001211748FDF7DDFF1648FEF776FAFEF7B3
:102C1800CBFA0B20FEF7ACFA03461A46124B1A60A1
:102C28000D20FEF7A5FA03461A46104B1A600E202F
:102C3800FEF79EFA03461A460D4B1A600F20FEF760
:102C480097FA03461A460B4B1A600A20FEF790FAC9
:102C580003461A46084B1A6000BF80BDA001002039
:102C68000010014000240140680400207004002086
:102C78006C040020600400206404002090B583B038
:102C880000AF00F08BF800F0BDF83E4B1B683E4AE1
:102C9800A2FB03239B094FF0000487E818003B6858
:102CA8001846FFF7E1FD0F20FFF79CFD01210420E6
:102CB800FEF74EF801210820FEF74AF801211020FE
:102CC800FEF746F801212020FEF742F801214FF4D3
:102CD8008040FEF73DF801214FF48020FEF756F8BA
:102CE80001214FF40070FEF733F801210120FEF7AF
:102CF8002FF8264B00225A60244A244B5B6843F085
:102D080010035360FFF7D2FDFFF71EFEFFF74AFEE0
:102D1800FFF796FEFFF728FF00224FF480511C486A
:102D2800FDF74FFF002280211A48FDF74AFF0022D5
:102D380040211848FDF745FF002220211548FDF7DE
:102D480040FF002210211348FDF73BFF0022082115
:102D58001048FDF736FF002204210E48FDF731FF29
:102D6800002202210B48FDF72CFF0022012109480F
:102D7800FDF727FF084800F00DFB00BF0C37BD46E4
:102D880090BD00BF44000020D34D621000000140F8
:102D98000010014000080140E836000880B500AF87
:102DA800154A154B1B6843F0010313601249124B77
:102DB8005A68124B13404B600F4A0F4B1B6823F0A5
:102DC800847323F4803313600B4A0B4B1B6823F482
:102DD80080231360084A084B5B6823F4FE035360A2
:102DE800054B4FF41F029A6000F078F8044B4FF03F
:102DF80000629A6000BF80BD001002400000FFF82A
:102E080000ED00E080B485B000AF0023FB60002334
:102E1800BB6000237B602C4B5B6803F00C03FB60FA
:102E2800FB68042B07D0082B09D0002B33D1274B84
:102E3800274A1A6033E0254B254A1A602FE0224BB7
:102E48005B6803F47013BB601F4B5B6803F480334B
:102E58007B60BB689B0C0233BB607B68002B06D190
:102E6800BB681C4A02FB03F3184A136017E0164BB1
:102E78005B6803F40033002B06D0BB68154A02FBDD
:102E880003F3124A13600AE0BB68114A02FB03F31A
:102E98000E4A136003E00D4B0D4A1A6000BF0A4B3F
:102EA8005B681B0903F00F030B4AD35CDBB2FB60C2
:102EB800064B1A68FB6822FA03F3044A136000BF42
:102EC8001437BD4680BC7047001002404400002003
:102ED80000127A0000093D004800002080B500AFCC
:102EE80000F002F800BF80BD80B483B000AF0023BB
:102EF8007B6000233B603A4A394B1B6843F48033BC
:102F08001360374B1B6803F400333B607B68013365
:102F18007B603B68002B03D17B68B3F5A06FF0D1D1
:102F28002F4B1B6803F40033002B02D001233B60B6
:102F380001E000233B603B68012B4BD1294A294B18
:102F48001B6843F010031360264A264B1B6823F0C6
:102F580003031360234A234B1B6843F002031360E7
:102F68001F4A1F4B5B6853601D4A1D4B5B685360CB
:102F78001B4A1B4B5B6843F480635360184A184B29
:102F88005B6823F47C135360154A154B5B6843F464
:102F9800E8135360124A124B1B6843F080731360A6
:102FA80000BF0F4B1B6803F00073002BF9D00C4ACD
:102FB8000B4B5B6823F003035360094A084B5B68BB
:102FC80043F00203536000BF054B5B6803F00C033A
:102FD800082BF9D100BF0C37BD4680BC704700BF35
:102FE800001002400020024080B487B000AFF860B3
:102FF800B9607A6001237B6104E07B697A6802FB2F
:1030080003F37B617B69BA68B2FBF3F27B689A428F
:10301800F3D229E07B69BA68B2FBF3F33B617A69C2
:10302800BB68B3FBF2F102FB01F29B1ABB607A6941
:103038007B6892FBF3F37B613B69092B0ADDFB6834
:103048001B68591CFA6811603A69D2B23732D2B299
:103058001A7009E0FB681B68591CFA6811603A6924
:10306800D2B23032D2B21A707B69002BD2D100BFF3
:103078001C37BD4680BC704780B588B000AFF8608B
:10308800B9607A60FB687B617DE0BB681B78252BA3
:1030980071D1BB680133BB60BB681B78642B1ED041
:1030A800642B06DC582B50D0632B0ED0252B58D020
:1030B8005DE0732B2BD0732B02DC692B0FD056E00D
:1030C800752B37D0782B40D051E0FB685A1CFA603A
:1030D8007A68111D79601268D2B21A7047E07B686D
:1030E8001A1D7A601B68FB61FB69002B07DAFB6914
:1030F8005B42FB61FB685A1CFA602D221A70F96961
:1031080007F10C030A221846FFF76EFF2FE07B68D1
:103118001A1D7A601B68BB6107E0FB685A1CFA60DD
:10312800BA69511CB96112781A70BB691B78002BF7
:10313800F3D11CE07B681A1D7A60196807F10C034B
:103148000A221846FFF750FF11E07B681A1D7A60C3
:103158001B68194607F10C0310221846FFF744FFB5
:1031680005E0FB685A1CFA6025221A7000BFBB688C
:103178000133BB6007E0FB685A1CFA60BA68511C4F
:10318800B96012781A70BB681B78002B7FF47DAF8A
:10319800FB6800221A70FB681A467B69D31A184626
:1031A8002037BD4680BD000080B485B000AF786090
:1031B80039600023FB6081E07B681B78252B77D181
:1031C8007B6801337B607B681B78583B202B6AD86F
:1031D80001A252F823F000BFA1320008AF32000864
:1031E800AF320008AF320008AF320008AF32000833
:1031F800AF320008AF320008AF320008AF32000823
:10320800AF3200086532000873320008AF32000898
:10321800AF320008AF320008AF320008733200083E
:10322800AF320008AF320008AF320008AF320008F2
:10323800AF320008AF320008AF320008AF320008E2
:10324800AF32000881320008AF320008733200083C
:10325800AF320008AF320008A13200083B680433DF
:103268003B60FB680133FB6025E0FB680B33FB60C8
:103278003B6804333B601EE03B681A1D3A601B68DC
:10328800BB6002E0FB680133FB60BB685A1CBA6094
:103298001B78002BF6D10EE0FB680833FB603B6817
:1032A80004333B6007E0FB680133FB6000BF02E0CA
:1032B800FB680133FB607B6801337B607B681B78AC
:1032C800002B7FF479AFFB6818461437BD4680BCE5
:1032D800704700BF0EB480B585B000AF786007F1C5
:1032E8002003BB60BA68F9697868FFF7C5FEF86023
:1032F800FB6818461437BD46BDE8804003B07047E8
:103308000FB42DE9F04385B000AF0023FB6007F14F
:1033180034033B603968386BFFF746FFF8606B464B
:103328001E46F9684B1EBB600B461A464FF0000359
:103338004FEAC30949EA52794FEAC2080B461A46CE
:103348004FF00003DD0045EA5275D4000B46073301
:10335800DB08DB00ADEB030D6B4600337B6007F148
:1033680034033B607B683A68396B1846FFF784FE84
:10337800F8607B68FA6819460120FFF716FAF860CA
:10338800B546FB6818461437BD46BDE8F04304B09F
:103398007047000080B586B000AF78607868FCF7A9
:1033A80049FF03463B610023FB603A6979680120C5
:1033B800FFF7FBF9F86001220B490120FFF7F5F947
:1033C8000246FB681344FB603B695A1CFB689A423F
:1033D80002D100237B6102E04FF0FF337B617B6900
:1033E80018461837BD4680BDFC36000870B5002564
:1033F8000C4E0D4CA41BA410A54209D100F02EF8C8
:1034080000250A4E0A4CA41BA410A54205D170BD84
:1034180056F8253098470135EEE756F82530984795
:103428000135F2E7003700080037000800370008C8
:103438000437000810B5431E0A44914200D110BD5C
:1034480011F8014B03F8014FF7E703460244934292
:1034580000D1704703F8011BF9E70000F8B500BF79
:10346800F8BC08BC9E467047F8B500BFF8BC08BC5D
:043478009E467047B5
:10347C006669666F203E206D61785B253032645D35
:10348C0020776974682073697A655B253032645DD6
:10349C002E2069643A205B25735D253032640D0A59
:1034AC0000000000504952204B45592053544154C0
:1034BC00452049532025640D0A0000004E5443203A
:1034CC0056414C55452049533A2025640D0A0000BD
:1034DC004E5443204953204E4F5420524541445999
:1034EC000D00000053454E534F522041444320568B
:1034FC00414C55452049532025640D0A000000001D
:10350C00414C41524D2D4552520D0000434F4E4EF1
:10351C00454354494F4E2057495448205049522056
:10352C004641494C440D0000626F61726420256471
:10353C00206F6E00424F415244202564204F4E2094
:10354C00414C52454144590D0A000000424F415232
:10355C0044202564204F4646204155544F4D41543C
:10356C004943414C4C590D0A00000000424F415256
:10357C0044202564204F4E0D0A000000626F6172DA
:10358C0064202564206F666600000000424F4152A3
:10359C0044202564204F46460D0A000072756E20AB
:1035AC0025640000424F4152442025642049532099
:1035BC004F46460D0A00000073746F70202564009E
:1035CC00544553542053544F505045442042592095
:1035DC00434D4400544553542D52554E4E494E477D
:1035EC000D00000043555252454E543A2025640DAF
:1035FC000A000000504F5745522035563A2025649A
:10360C000D0A00006572722053454E44494E472006
:10361C004350435F4F46460D000000006572722018
:10362C00435043204F46460D000000006572722047
:10363C0053454E44494E47204350435F4F4E0D0077
:10364C0065727220435043204F4E0D004350432D62
:10365C0046494E0D0000000053454E534F52205624
:10366C004F4C544147453A2025640D0A0000000098
:10367C0043415020564F4C544147453A2025640D48
:10368C000A00000065727220524553495649454E56
:10369C0047204441544120464F524D205049520D31
:1036AC00000000005741495420464F5220524541DA
:1036BC00444C590D00000000544553542D46494EBE
:1036CC000D000000436F6D6D616E64204669666F7E
:1036DC000000000025642C25640D0A002A2A52657E
:1036EC0061647920746F20746573742A2A200D002C
:0436FC000A000000C0
:043700000D020008AE
:04370400E9010008CF
:10370800000000000102030401020304060708097F
:10371800020406080002000180004000008000400A
:10372800002000100010014000100140001001406E
:1037380000100140000C0140000C0140000C014049
:10374800000C014000A24A04000000000000000034
:08375800010203040607080941
:0400000508002719AF
:00000001FF
